{"contracts/OptionsTrading.sol":{"OptionsTrading":{"abi":[{"anonymous":false,"inputs":[{"indexed":true,"internalType":"uint256","name":"optionId","type":"uint256"},{"indexed":true,"internalType":"address","name":"trader","type":"address"},{"indexed":false,"internalType":"string","name":"optionType","type":"string"},{"indexed":false,"internalType":"string","name":"action","type":"string"},{"indexed":false,"internalType":"uint256","name":"lots","type":"uint256"},{"indexed":false,"internalType":"uint256","name":"strikePrice","type":"uint256"},{"indexed":false,"internalType":"uint256","name":"premium","type":"uint256"},{"indexed":false,"internalType":"uint256","name":"expiry","type":"uint256"}],"name":"OptionCreated","type":"event"},{"inputs":[{"internalType":"string","name":"_optionType","type":"string"},{"internalType":"string","name":"_action","type":"string"},{"internalType":"uint256","name":"_lots","type":"uint256"},{"internalType":"uint256","name":"_strikePrice","type":"uint256"},{"internalType":"uint256","name":"_premium","type":"uint256"},{"internalType":"uint256","name":"_expiry","type":"uint256"}],"name":"createOption","outputs":[{"internalType":"uint256","name":"","type":"uint256"}],"stateMutability":"payable","type":"function"},{"inputs":[],"name":"nextOptionId","outputs":[{"internalType":"uint256","name":"","type":"uint256"}],"stateMutability":"view","type":"function"},{"inputs":[{"internalType":"uint256","name":"","type":"uint256"}],"name":"options","outputs":[{"internalType":"address","name":"trader","type":"address"},{"internalType":"string","name":"optionType","type":"string"},{"internalType":"string","name":"action","type":"string"},{"internalType":"uint256","name":"lots","type":"uint256"},{"internalType":"uint256","name":"strikePrice","type":"uint256"},{"internalType":"uint256","name":"premium","type":"uint256"},{"internalType":"uint256","name":"expiry","type":"uint256"},{"internalType":"bool","name":"isActive","type":"bool"}],"stateMutability":"view","type":"function"}],"evm":{"bytecode":{"linkReferences":{},"object":"608060405234801561001057600080fd5b50610ef7806100206000396000f3fe6080604052600436106100345760003560e01c80633a755c4e14610039578063409e2205146100695780639215abb0146100ad575b600080fd5b610053600480360381019061004e91906106a4565b6100d8565b6040516100609190610778565b60405180910390f35b34801561007557600080fd5b50610090600480360381019061008b9190610793565b610389565b6040516100a498979695949392919061089b565b60405180910390f35b3480156100b957600080fd5b506100c261050e565b6040516100cf9190610778565b60405180910390f35b600080851161011c576040517f08c379a000000000000000000000000000000000000000000000000000000000815260040161011390610973565b60405180910390fd5b6000841161015f576040517f08c379a000000000000000000000000000000000000000000000000000000000815260040161015690610a05565b60405180910390fd5b600083116101a2576040517f08c379a000000000000000000000000000000000000000000000000000000000815260040161019990610a71565b60405180910390fd5b4282116101e4576040517f08c379a00000000000000000000000000000000000000000000000000000000081526004016101db90610add565b60405180910390fd5b6000600160008154809291906101f990610b2c565b9190505590506040518061010001604052803373ffffffffffffffffffffffffffffffffffffffff1681526020018981526020018881526020018781526020018681526020018581526020018481526020016001151581525060008083815260200190815260200160002060008201518160000160006101000a81548173ffffffffffffffffffffffffffffffffffffffff021916908373ffffffffffffffffffffffffffffffffffffffff16021790555060208201518160010190816102c09190610d80565b5060408201518160020190816102d69190610d80565b50606082015181600301556080820151816004015560a0820151816005015560c0820151816006015560e08201518160070160006101000a81548160ff0219169083151502179055509050503373ffffffffffffffffffffffffffffffffffffffff16817fd0815d434d957527dc593641d28c54892edba867f212a6c587c58f47c244a3f38a8a8a8a8a8a60405161037396959493929190610e52565b60405180910390a3809150509695505050505050565b60006020528060005260406000206000915090508060000160009054906101000a900473ffffffffffffffffffffffffffffffffffffffff16908060010180546103d290610ba3565b80601f01602080910402602001604051908101604052809291908181526020018280546103fe90610ba3565b801561044b5780601f106104205761010080835404028352916020019161044b565b820191906000526020600020905b81548152906001019060200180831161042e57829003601f168201915b50505050509080600201805461046090610ba3565b80601f016020809104026020016040519081016040528092919081815260200182805461048c90610ba3565b80156104d95780601f106104ae576101008083540402835291602001916104d9565b820191906000526020600020905b8154815290600101906020018083116104bc57829003601f168201915b5050505050908060030154908060040154908060050154908060060154908060070160009054906101000a900460ff16905088565b60015481565b6000604051905090565b600080fd5b600080fd5b600080fd5b600080fd5b6000601f19601f8301169050919050565b7f4e487b7100000000000000000000000000000000000000000000000000000000600052604160045260246000fd5b61057b82610532565b810181811067ffffffffffffffff8211171561059a57610599610543565b5b80604052505050565b60006105ad610514565b90506105b98282610572565b919050565b600067ffffffffffffffff8211156105d9576105d8610543565b5b6105e282610532565b9050602081019050919050565b82818337600083830152505050565b600061061161060c846105be565b6105a3565b90508281526020810184848401111561062d5761062c61052d565b5b6106388482856105ef565b509392505050565b600082601f83011261065557610654610528565b5b81356106658482602086016105fe565b91505092915050565b6000819050919050565b6106818161066e565b811461068c57600080fd5b50565b60008135905061069e81610678565b92915050565b60008060008060008060c087890312156106c1576106c061051e565b5b600087013567ffffffffffffffff8111156106df576106de610523565b5b6106eb89828a01610640565b965050602087013567ffffffffffffffff81111561070c5761070b610523565b5b61071889828a01610640565b955050604061072989828a0161068f565b945050606061073a89828a0161068f565b935050608061074b89828a0161068f565b92505060a061075c89828a0161068f565b9150509295509295509295565b6107728161066e565b82525050565b600060208201905061078d6000830184610769565b92915050565b6000602082840312156107a9576107a861051e565b5b60006107b78482850161068f565b91505092915050565b600073ffffffffffffffffffffffffffffffffffffffff82169050919050565b60006107eb826107c0565b9050919050565b6107fb816107e0565b82525050565b600081519050919050565b600082825260208201905092915050565b60005b8381101561083b578082015181840152602081019050610820565b60008484015250505050565b600061085282610801565b61085c818561080c565b935061086c81856020860161081d565b61087581610532565b840191505092915050565b60008115159050919050565b61089581610880565b82525050565b6000610100820190506108b1600083018b6107f2565b81810360208301526108c3818a610847565b905081810360408301526108d78189610847565b90506108e66060830188610769565b6108f36080830187610769565b61090060a0830186610769565b61090d60c0830185610769565b61091a60e083018461088c565b9998505050505050505050565b7f4c6f7473206d7573742062652067726561746572207468616e20300000000000600082015250565b600061095d601b8361080c565b915061096882610927565b602082019050919050565b6000602082019050818103600083015261098c81610950565b9050919050565b7f537472696b65207072696365206d75737420626520677265617465722074686160008201527f6e20300000000000000000000000000000000000000000000000000000000000602082015250565b60006109ef60238361080c565b91506109fa82610993565b604082019050919050565b60006020820190508181036000830152610a1e816109e2565b9050919050565b7f5072656d69756d206d7573742062652067726561746572207468616e20300000600082015250565b6000610a5b601e8361080c565b9150610a6682610a25565b602082019050919050565b60006020820190508181036000830152610a8a81610a4e565b9050919050565b7f457870697279206d75737420626520696e207468652066757475726500000000600082015250565b6000610ac7601c8361080c565b9150610ad282610a91565b602082019050919050565b60006020820190508181036000830152610af681610aba565b9050919050565b7f4e487b7100000000000000000000000000000000000000000000000000000000600052601160045260246000fd5b6000610b378261066e565b91507fffffffffffffffffffffffffffffffffffffffffffffffffffffffffffffffff8203610b6957610b68610afd565b5b600182019050919050565b7f4e487b7100000000000000000000000000000000000000000000000000000000600052602260045260246000fd5b60006002820490506001821680610bbb57607f821691505b602082108103610bce57610bcd610b74565b5b50919050565b60008190508160005260206000209050919050565b60006020601f8301049050919050565b600082821b905092915050565b600060088302610c367fffffffffffffffffffffffffffffffffffffffffffffffffffffffffffffffff82610bf9565b610c408683610bf9565b95508019841693508086168417925050509392505050565b6000819050919050565b6000610c7d610c78610c738461066e565b610c58565b61066e565b9050919050565b6000819050919050565b610c9783610c62565b610cab610ca382610c84565b848454610c06565b825550505050565b600090565b610cc0610cb3565b610ccb818484610c8e565b505050565b5b81811015610cef57610ce4600082610cb8565b600181019050610cd1565b5050565b601f821115610d3457610d0581610bd4565b610d0e84610be9565b81016020851015610d1d578190505b610d31610d2985610be9565b830182610cd0565b50505b505050565b600082821c905092915050565b6000610d5760001984600802610d39565b1980831691505092915050565b6000610d708383610d46565b9150826002028217905092915050565b610d8982610801565b67ffffffffffffffff811115610da257610da1610543565b5b610dac8254610ba3565b610db7828285610cf3565b600060209050601f831160018114610dea5760008415610dd8578287015190505b610de28582610d64565b865550610e4a565b601f198416610df886610bd4565b60005b82811015610e2057848901518255600182019150602085019450602081019050610dfb565b86831015610e3d5784890151610e39601f891682610d46565b8355505b6001600288020188555050505b505050505050565b600060c0820190508181036000830152610e6c8189610847565b90508181036020830152610e808188610847565b9050610e8f6040830187610769565b610e9c6060830186610769565b610ea96080830185610769565b610eb660a0830184610769565b97965050505050505056fea26469706673582212202d03b88d116b07fef5fe14db5f9fe4da3697f3b5be4f5f594179eca4b365708664736f6c63430008130033","opcodes":"PUSH1 0x80 PUSH1 0x40 MSTORE CALLVALUE DUP1 ISZERO PUSH2 0x10 JUMPI PUSH1 0x0 DUP1 REVERT JUMPDEST POP PUSH2 0xEF7 DUP1 PUSH2 0x20 PUSH1 0x0 CODECOPY PUSH1 0x0 RETURN INVALID PUSH1 0x80 PUSH1 0x40 MSTORE PUSH1 0x4 CALLDATASIZE LT PUSH2 0x34 JUMPI PUSH1 0x0 CALLDATALOAD PUSH1 0xE0 SHR DUP1 PUSH4 0x3A755C4E EQ PUSH2 0x39 JUMPI DUP1 PUSH4 0x409E2205 EQ PUSH2 0x69 JUMPI DUP1 PUSH4 0x9215ABB0 EQ PUSH2 0xAD JUMPI JUMPDEST PUSH1 0x0 DUP1 REVERT JUMPDEST PUSH2 0x53 PUSH1 0x4 DUP1 CALLDATASIZE SUB DUP2 ADD SWAP1 PUSH2 0x4E SWAP2 SWAP1 PUSH2 0x6A4 JUMP JUMPDEST PUSH2 0xD8 JUMP JUMPDEST PUSH1 0x40 MLOAD PUSH2 0x60 SWAP2 SWAP1 PUSH2 0x778 JUMP JUMPDEST PUSH1 0x40 MLOAD DUP1 SWAP2 SUB SWAP1 RETURN JUMPDEST CALLVALUE DUP1 ISZERO PUSH2 0x75 JUMPI PUSH1 0x0 DUP1 REVERT JUMPDEST POP PUSH2 0x90 PUSH1 0x4 DUP1 CALLDATASIZE SUB DUP2 ADD SWAP1 PUSH2 0x8B SWAP2 SWAP1 PUSH2 0x793 JUMP JUMPDEST PUSH2 0x389 JUMP JUMPDEST PUSH1 0x40 MLOAD PUSH2 0xA4 SWAP9 SWAP8 SWAP7 SWAP6 SWAP5 SWAP4 SWAP3 SWAP2 SWAP1 PUSH2 0x89B JUMP JUMPDEST PUSH1 0x40 MLOAD DUP1 SWAP2 SUB SWAP1 RETURN JUMPDEST CALLVALUE DUP1 ISZERO PUSH2 0xB9 JUMPI PUSH1 0x0 DUP1 REVERT JUMPDEST POP PUSH2 0xC2 PUSH2 0x50E JUMP JUMPDEST PUSH1 0x40 MLOAD PUSH2 0xCF SWAP2 SWAP1 PUSH2 0x778 JUMP JUMPDEST PUSH1 0x40 MLOAD DUP1 SWAP2 SUB SWAP1 RETURN JUMPDEST PUSH1 0x0 DUP1 DUP6 GT PUSH2 0x11C JUMPI PUSH1 0x40 MLOAD PUSH32 0x8C379A000000000000000000000000000000000000000000000000000000000 DUP2 MSTORE PUSH1 0x4 ADD PUSH2 0x113 SWAP1 PUSH2 0x973 JUMP JUMPDEST PUSH1 0x40 MLOAD DUP1 SWAP2 SUB SWAP1 REVERT JUMPDEST PUSH1 0x0 DUP5 GT PUSH2 0x15F JUMPI PUSH1 0x40 MLOAD PUSH32 0x8C379A000000000000000000000000000000000000000000000000000000000 DUP2 MSTORE PUSH1 0x4 ADD PUSH2 0x156 SWAP1 PUSH2 0xA05 JUMP JUMPDEST PUSH1 0x40 MLOAD DUP1 SWAP2 SUB SWAP1 REVERT JUMPDEST PUSH1 0x0 DUP4 GT PUSH2 0x1A2 JUMPI PUSH1 0x40 MLOAD PUSH32 0x8C379A000000000000000000000000000000000000000000000000000000000 DUP2 MSTORE PUSH1 0x4 ADD PUSH2 0x199 SWAP1 PUSH2 0xA71 JUMP JUMPDEST PUSH1 0x40 MLOAD DUP1 SWAP2 SUB SWAP1 REVERT JUMPDEST TIMESTAMP DUP3 GT PUSH2 0x1E4 JUMPI PUSH1 0x40 MLOAD PUSH32 0x8C379A000000000000000000000000000000000000000000000000000000000 DUP2 MSTORE PUSH1 0x4 ADD PUSH2 0x1DB SWAP1 PUSH2 0xADD JUMP JUMPDEST PUSH1 0x40 MLOAD DUP1 SWAP2 SUB SWAP1 REVERT JUMPDEST PUSH1 0x0 PUSH1 0x1 PUSH1 0x0 DUP2 SLOAD DUP1 SWAP3 SWAP2 SWAP1 PUSH2 0x1F9 SWAP1 PUSH2 0xB2C JUMP JUMPDEST SWAP2 SWAP1 POP SSTORE SWAP1 POP PUSH1 0x40 MLOAD DUP1 PUSH2 0x100 ADD PUSH1 0x40 MSTORE DUP1 CALLER PUSH20 0xFFFFFFFFFFFFFFFFFFFFFFFFFFFFFFFFFFFFFFFF AND DUP2 MSTORE PUSH1 0x20 ADD DUP10 DUP2 MSTORE PUSH1 0x20 ADD DUP9 DUP2 MSTORE PUSH1 0x20 ADD DUP8 DUP2 MSTORE PUSH1 0x20 ADD DUP7 DUP2 MSTORE PUSH1 0x20 ADD DUP6 DUP2 MSTORE PUSH1 0x20 ADD DUP5 DUP2 MSTORE PUSH1 0x20 ADD PUSH1 0x1 ISZERO ISZERO DUP2 MSTORE POP PUSH1 0x0 DUP1 DUP4 DUP2 MSTORE PUSH1 0x20 ADD SWAP1 DUP2 MSTORE PUSH1 0x20 ADD PUSH1 0x0 KECCAK256 PUSH1 0x0 DUP3 ADD MLOAD DUP2 PUSH1 0x0 ADD PUSH1 0x0 PUSH2 0x100 EXP DUP2 SLOAD DUP2 PUSH20 0xFFFFFFFFFFFFFFFFFFFFFFFFFFFFFFFFFFFFFFFF MUL NOT AND SWAP1 DUP4 PUSH20 0xFFFFFFFFFFFFFFFFFFFFFFFFFFFFFFFFFFFFFFFF AND MUL OR SWAP1 SSTORE POP PUSH1 0x20 DUP3 ADD MLOAD DUP2 PUSH1 0x1 ADD SWAP1 DUP2 PUSH2 0x2C0 SWAP2 SWAP1 PUSH2 0xD80 JUMP JUMPDEST POP PUSH1 0x40 DUP3 ADD MLOAD DUP2 PUSH1 0x2 ADD SWAP1 DUP2 PUSH2 0x2D6 SWAP2 SWAP1 PUSH2 0xD80 JUMP JUMPDEST POP PUSH1 0x60 DUP3 ADD MLOAD DUP2 PUSH1 0x3 ADD SSTORE PUSH1 0x80 DUP3 ADD MLOAD DUP2 PUSH1 0x4 ADD SSTORE PUSH1 0xA0 DUP3 ADD MLOAD DUP2 PUSH1 0x5 ADD SSTORE PUSH1 0xC0 DUP3 ADD MLOAD DUP2 PUSH1 0x6 ADD SSTORE PUSH1 0xE0 DUP3 ADD MLOAD DUP2 PUSH1 0x7 ADD PUSH1 0x0 PUSH2 0x100 EXP DUP2 SLOAD DUP2 PUSH1 0xFF MUL NOT AND SWAP1 DUP4 ISZERO ISZERO MUL OR SWAP1 SSTORE POP SWAP1 POP POP CALLER PUSH20 0xFFFFFFFFFFFFFFFFFFFFFFFFFFFFFFFFFFFFFFFF AND DUP2 PUSH32 0xD0815D434D957527DC593641D28C54892EDBA867F212A6C587C58F47C244A3F3 DUP11 DUP11 DUP11 DUP11 DUP11 DUP11 PUSH1 0x40 MLOAD PUSH2 0x373 SWAP7 SWAP6 SWAP5 SWAP4 SWAP3 SWAP2 SWAP1 PUSH2 0xE52 JUMP JUMPDEST PUSH1 0x40 MLOAD DUP1 SWAP2 SUB SWAP1 LOG3 DUP1 SWAP2 POP POP SWAP7 SWAP6 POP POP POP POP POP POP JUMP JUMPDEST PUSH1 0x0 PUSH1 0x20 MSTORE DUP1 PUSH1 0x0 MSTORE PUSH1 0x40 PUSH1 0x0 KECCAK256 PUSH1 0x0 SWAP2 POP SWAP1 POP DUP1 PUSH1 0x0 ADD PUSH1 0x0 SWAP1 SLOAD SWAP1 PUSH2 0x100 EXP SWAP1 DIV PUSH20 0xFFFFFFFFFFFFFFFFFFFFFFFFFFFFFFFFFFFFFFFF AND SWAP1 DUP1 PUSH1 0x1 ADD DUP1 SLOAD PUSH2 0x3D2 SWAP1 PUSH2 0xBA3 JUMP JUMPDEST DUP1 PUSH1 0x1F ADD PUSH1 0x20 DUP1 SWAP2 DIV MUL PUSH1 0x20 ADD PUSH1 0x40 MLOAD SWAP1 DUP2 ADD PUSH1 0x40 MSTORE DUP1 SWAP3 SWAP2 SWAP1 DUP2 DUP2 MSTORE PUSH1 0x20 ADD DUP3 DUP1 SLOAD PUSH2 0x3FE SWAP1 PUSH2 0xBA3 JUMP JUMPDEST DUP1 ISZERO PUSH2 0x44B JUMPI DUP1 PUSH1 0x1F LT PUSH2 0x420 JUMPI PUSH2 0x100 DUP1 DUP4 SLOAD DIV MUL DUP4 MSTORE SWAP2 PUSH1 0x20 ADD SWAP2 PUSH2 0x44B JUMP JUMPDEST DUP3 ADD SWAP2 SWAP1 PUSH1 0x0 MSTORE PUSH1 0x20 PUSH1 0x0 KECCAK256 SWAP1 JUMPDEST DUP2 SLOAD DUP2 MSTORE SWAP1 PUSH1 0x1 ADD SWAP1 PUSH1 0x20 ADD DUP1 DUP4 GT PUSH2 0x42E JUMPI DUP3 SWAP1 SUB PUSH1 0x1F AND DUP3 ADD SWAP2 JUMPDEST POP POP POP POP POP SWAP1 DUP1 PUSH1 0x2 ADD DUP1 SLOAD PUSH2 0x460 SWAP1 PUSH2 0xBA3 JUMP JUMPDEST DUP1 PUSH1 0x1F ADD PUSH1 0x20 DUP1 SWAP2 DIV MUL PUSH1 0x20 ADD PUSH1 0x40 MLOAD SWAP1 DUP2 ADD PUSH1 0x40 MSTORE DUP1 SWAP3 SWAP2 SWAP1 DUP2 DUP2 MSTORE PUSH1 0x20 ADD DUP3 DUP1 SLOAD PUSH2 0x48C SWAP1 PUSH2 0xBA3 JUMP JUMPDEST DUP1 ISZERO PUSH2 0x4D9 JUMPI DUP1 PUSH1 0x1F LT PUSH2 0x4AE JUMPI PUSH2 0x100 DUP1 DUP4 SLOAD DIV MUL DUP4 MSTORE SWAP2 PUSH1 0x20 ADD SWAP2 PUSH2 0x4D9 JUMP JUMPDEST DUP3 ADD SWAP2 SWAP1 PUSH1 0x0 MSTORE PUSH1 0x20 PUSH1 0x0 KECCAK256 SWAP1 JUMPDEST DUP2 SLOAD DUP2 MSTORE SWAP1 PUSH1 0x1 ADD SWAP1 PUSH1 0x20 ADD DUP1 DUP4 GT PUSH2 0x4BC JUMPI DUP3 SWAP1 SUB PUSH1 0x1F AND DUP3 ADD SWAP2 JUMPDEST POP POP POP POP POP SWAP1 DUP1 PUSH1 0x3 ADD SLOAD SWAP1 DUP1 PUSH1 0x4 ADD SLOAD SWAP1 DUP1 PUSH1 0x5 ADD SLOAD SWAP1 DUP1 PUSH1 0x6 ADD SLOAD SWAP1 DUP1 PUSH1 0x7 ADD PUSH1 0x0 SWAP1 SLOAD SWAP1 PUSH2 0x100 EXP SWAP1 DIV PUSH1 0xFF AND SWAP1 POP DUP9 JUMP JUMPDEST PUSH1 0x1 SLOAD DUP2 JUMP JUMPDEST PUSH1 0x0 PUSH1 0x40 MLOAD SWAP1 POP SWAP1 JUMP JUMPDEST PUSH1 0x0 DUP1 REVERT JUMPDEST PUSH1 0x0 DUP1 REVERT JUMPDEST PUSH1 0x0 DUP1 REVERT JUMPDEST PUSH1 0x0 DUP1 REVERT JUMPDEST PUSH1 0x0 PUSH1 0x1F NOT PUSH1 0x1F DUP4 ADD AND SWAP1 POP SWAP2 SWAP1 POP JUMP JUMPDEST PUSH32 0x4E487B7100000000000000000000000000000000000000000000000000000000 PUSH1 0x0 MSTORE PUSH1 0x41 PUSH1 0x4 MSTORE PUSH1 0x24 PUSH1 0x0 REVERT JUMPDEST PUSH2 0x57B DUP3 PUSH2 0x532 JUMP JUMPDEST DUP2 ADD DUP2 DUP2 LT PUSH8 0xFFFFFFFFFFFFFFFF DUP3 GT OR ISZERO PUSH2 0x59A JUMPI PUSH2 0x599 PUSH2 0x543 JUMP JUMPDEST JUMPDEST DUP1 PUSH1 0x40 MSTORE POP POP POP JUMP JUMPDEST PUSH1 0x0 PUSH2 0x5AD PUSH2 0x514 JUMP JUMPDEST SWAP1 POP PUSH2 0x5B9 DUP3 DUP3 PUSH2 0x572 JUMP JUMPDEST SWAP2 SWAP1 POP JUMP JUMPDEST PUSH1 0x0 PUSH8 0xFFFFFFFFFFFFFFFF DUP3 GT ISZERO PUSH2 0x5D9 JUMPI PUSH2 0x5D8 PUSH2 0x543 JUMP JUMPDEST JUMPDEST PUSH2 0x5E2 DUP3 PUSH2 0x532 JUMP JUMPDEST SWAP1 POP PUSH1 0x20 DUP2 ADD SWAP1 POP SWAP2 SWAP1 POP JUMP JUMPDEST DUP3 DUP2 DUP4 CALLDATACOPY PUSH1 0x0 DUP4 DUP4 ADD MSTORE POP POP POP JUMP JUMPDEST PUSH1 0x0 PUSH2 0x611 PUSH2 0x60C DUP5 PUSH2 0x5BE JUMP JUMPDEST PUSH2 0x5A3 JUMP JUMPDEST SWAP1 POP DUP3 DUP2 MSTORE PUSH1 0x20 DUP2 ADD DUP5 DUP5 DUP5 ADD GT ISZERO PUSH2 0x62D JUMPI PUSH2 0x62C PUSH2 0x52D JUMP JUMPDEST JUMPDEST PUSH2 0x638 DUP5 DUP3 DUP6 PUSH2 0x5EF JUMP JUMPDEST POP SWAP4 SWAP3 POP POP POP JUMP JUMPDEST PUSH1 0x0 DUP3 PUSH1 0x1F DUP4 ADD SLT PUSH2 0x655 JUMPI PUSH2 0x654 PUSH2 0x528 JUMP JUMPDEST JUMPDEST DUP2 CALLDATALOAD PUSH2 0x665 DUP5 DUP3 PUSH1 0x20 DUP7 ADD PUSH2 0x5FE JUMP JUMPDEST SWAP2 POP POP SWAP3 SWAP2 POP POP JUMP JUMPDEST PUSH1 0x0 DUP2 SWAP1 POP SWAP2 SWAP1 POP JUMP JUMPDEST PUSH2 0x681 DUP2 PUSH2 0x66E JUMP JUMPDEST DUP2 EQ PUSH2 0x68C JUMPI PUSH1 0x0 DUP1 REVERT JUMPDEST POP JUMP JUMPDEST PUSH1 0x0 DUP2 CALLDATALOAD SWAP1 POP PUSH2 0x69E DUP2 PUSH2 0x678 JUMP JUMPDEST SWAP3 SWAP2 POP POP JUMP JUMPDEST PUSH1 0x0 DUP1 PUSH1 0x0 DUP1 PUSH1 0x0 DUP1 PUSH1 0xC0 DUP8 DUP10 SUB SLT ISZERO PUSH2 0x6C1 JUMPI PUSH2 0x6C0 PUSH2 0x51E JUMP JUMPDEST JUMPDEST PUSH1 0x0 DUP8 ADD CALLDATALOAD PUSH8 0xFFFFFFFFFFFFFFFF DUP2 GT ISZERO PUSH2 0x6DF JUMPI PUSH2 0x6DE PUSH2 0x523 JUMP JUMPDEST JUMPDEST PUSH2 0x6EB DUP10 DUP3 DUP11 ADD PUSH2 0x640 JUMP JUMPDEST SWAP7 POP POP PUSH1 0x20 DUP8 ADD CALLDATALOAD PUSH8 0xFFFFFFFFFFFFFFFF DUP2 GT ISZERO PUSH2 0x70C JUMPI PUSH2 0x70B PUSH2 0x523 JUMP JUMPDEST JUMPDEST PUSH2 0x718 DUP10 DUP3 DUP11 ADD PUSH2 0x640 JUMP JUMPDEST SWAP6 POP POP PUSH1 0x40 PUSH2 0x729 DUP10 DUP3 DUP11 ADD PUSH2 0x68F JUMP JUMPDEST SWAP5 POP POP PUSH1 0x60 PUSH2 0x73A DUP10 DUP3 DUP11 ADD PUSH2 0x68F JUMP JUMPDEST SWAP4 POP POP PUSH1 0x80 PUSH2 0x74B DUP10 DUP3 DUP11 ADD PUSH2 0x68F JUMP JUMPDEST SWAP3 POP POP PUSH1 0xA0 PUSH2 0x75C DUP10 DUP3 DUP11 ADD PUSH2 0x68F JUMP JUMPDEST SWAP2 POP POP SWAP3 SWAP6 POP SWAP3 SWAP6 POP SWAP3 SWAP6 JUMP JUMPDEST PUSH2 0x772 DUP2 PUSH2 0x66E JUMP JUMPDEST DUP3 MSTORE POP POP JUMP JUMPDEST PUSH1 0x0 PUSH1 0x20 DUP3 ADD SWAP1 POP PUSH2 0x78D PUSH1 0x0 DUP4 ADD DUP5 PUSH2 0x769 JUMP JUMPDEST SWAP3 SWAP2 POP POP JUMP JUMPDEST PUSH1 0x0 PUSH1 0x20 DUP3 DUP5 SUB SLT ISZERO PUSH2 0x7A9 JUMPI PUSH2 0x7A8 PUSH2 0x51E JUMP JUMPDEST JUMPDEST PUSH1 0x0 PUSH2 0x7B7 DUP5 DUP3 DUP6 ADD PUSH2 0x68F JUMP JUMPDEST SWAP2 POP POP SWAP3 SWAP2 POP POP JUMP JUMPDEST PUSH1 0x0 PUSH20 0xFFFFFFFFFFFFFFFFFFFFFFFFFFFFFFFFFFFFFFFF DUP3 AND SWAP1 POP SWAP2 SWAP1 POP JUMP JUMPDEST PUSH1 0x0 PUSH2 0x7EB DUP3 PUSH2 0x7C0 JUMP JUMPDEST SWAP1 POP SWAP2 SWAP1 POP JUMP JUMPDEST PUSH2 0x7FB DUP2 PUSH2 0x7E0 JUMP JUMPDEST DUP3 MSTORE POP POP JUMP JUMPDEST PUSH1 0x0 DUP2 MLOAD SWAP1 POP SWAP2 SWAP1 POP JUMP JUMPDEST PUSH1 0x0 DUP3 DUP3 MSTORE PUSH1 0x20 DUP3 ADD SWAP1 POP SWAP3 SWAP2 POP POP JUMP JUMPDEST PUSH1 0x0 JUMPDEST DUP4 DUP2 LT ISZERO PUSH2 0x83B JUMPI DUP1 DUP3 ADD MLOAD DUP2 DUP5 ADD MSTORE PUSH1 0x20 DUP2 ADD SWAP1 POP PUSH2 0x820 JUMP JUMPDEST PUSH1 0x0 DUP5 DUP5 ADD MSTORE POP POP POP POP JUMP JUMPDEST PUSH1 0x0 PUSH2 0x852 DUP3 PUSH2 0x801 JUMP JUMPDEST PUSH2 0x85C DUP2 DUP6 PUSH2 0x80C JUMP JUMPDEST SWAP4 POP PUSH2 0x86C DUP2 DUP6 PUSH1 0x20 DUP7 ADD PUSH2 0x81D JUMP JUMPDEST PUSH2 0x875 DUP2 PUSH2 0x532 JUMP JUMPDEST DUP5 ADD SWAP2 POP POP SWAP3 SWAP2 POP POP JUMP JUMPDEST PUSH1 0x0 DUP2 ISZERO ISZERO SWAP1 POP SWAP2 SWAP1 POP JUMP JUMPDEST PUSH2 0x895 DUP2 PUSH2 0x880 JUMP JUMPDEST DUP3 MSTORE POP POP JUMP JUMPDEST PUSH1 0x0 PUSH2 0x100 DUP3 ADD SWAP1 POP PUSH2 0x8B1 PUSH1 0x0 DUP4 ADD DUP12 PUSH2 0x7F2 JUMP JUMPDEST DUP2 DUP2 SUB PUSH1 0x20 DUP4 ADD MSTORE PUSH2 0x8C3 DUP2 DUP11 PUSH2 0x847 JUMP JUMPDEST SWAP1 POP DUP2 DUP2 SUB PUSH1 0x40 DUP4 ADD MSTORE PUSH2 0x8D7 DUP2 DUP10 PUSH2 0x847 JUMP JUMPDEST SWAP1 POP PUSH2 0x8E6 PUSH1 0x60 DUP4 ADD DUP9 PUSH2 0x769 JUMP JUMPDEST PUSH2 0x8F3 PUSH1 0x80 DUP4 ADD DUP8 PUSH2 0x769 JUMP JUMPDEST PUSH2 0x900 PUSH1 0xA0 DUP4 ADD DUP7 PUSH2 0x769 JUMP JUMPDEST PUSH2 0x90D PUSH1 0xC0 DUP4 ADD DUP6 PUSH2 0x769 JUMP JUMPDEST PUSH2 0x91A PUSH1 0xE0 DUP4 ADD DUP5 PUSH2 0x88C JUMP JUMPDEST SWAP10 SWAP9 POP POP POP POP POP POP POP POP POP JUMP JUMPDEST PUSH32 0x4C6F7473206D7573742062652067726561746572207468616E20300000000000 PUSH1 0x0 DUP3 ADD MSTORE POP JUMP JUMPDEST PUSH1 0x0 PUSH2 0x95D PUSH1 0x1B DUP4 PUSH2 0x80C JUMP JUMPDEST SWAP2 POP PUSH2 0x968 DUP3 PUSH2 0x927 JUMP JUMPDEST PUSH1 0x20 DUP3 ADD SWAP1 POP SWAP2 SWAP1 POP JUMP JUMPDEST PUSH1 0x0 PUSH1 0x20 DUP3 ADD SWAP1 POP DUP2 DUP2 SUB PUSH1 0x0 DUP4 ADD MSTORE PUSH2 0x98C DUP2 PUSH2 0x950 JUMP JUMPDEST SWAP1 POP SWAP2 SWAP1 POP JUMP JUMPDEST PUSH32 0x537472696B65207072696365206D757374206265206772656174657220746861 PUSH1 0x0 DUP3 ADD MSTORE PUSH32 0x6E20300000000000000000000000000000000000000000000000000000000000 PUSH1 0x20 DUP3 ADD MSTORE POP JUMP JUMPDEST PUSH1 0x0 PUSH2 0x9EF PUSH1 0x23 DUP4 PUSH2 0x80C JUMP JUMPDEST SWAP2 POP PUSH2 0x9FA DUP3 PUSH2 0x993 JUMP JUMPDEST PUSH1 0x40 DUP3 ADD SWAP1 POP SWAP2 SWAP1 POP JUMP JUMPDEST PUSH1 0x0 PUSH1 0x20 DUP3 ADD SWAP1 POP DUP2 DUP2 SUB PUSH1 0x0 DUP4 ADD MSTORE PUSH2 0xA1E DUP2 PUSH2 0x9E2 JUMP JUMPDEST SWAP1 POP SWAP2 SWAP1 POP JUMP JUMPDEST PUSH32 0x5072656D69756D206D7573742062652067726561746572207468616E20300000 PUSH1 0x0 DUP3 ADD MSTORE POP JUMP JUMPDEST PUSH1 0x0 PUSH2 0xA5B PUSH1 0x1E DUP4 PUSH2 0x80C JUMP JUMPDEST SWAP2 POP PUSH2 0xA66 DUP3 PUSH2 0xA25 JUMP JUMPDEST PUSH1 0x20 DUP3 ADD SWAP1 POP SWAP2 SWAP1 POP JUMP JUMPDEST PUSH1 0x0 PUSH1 0x20 DUP3 ADD SWAP1 POP DUP2 DUP2 SUB PUSH1 0x0 DUP4 ADD MSTORE PUSH2 0xA8A DUP2 PUSH2 0xA4E JUMP JUMPDEST SWAP1 POP SWAP2 SWAP1 POP JUMP JUMPDEST PUSH32 0x457870697279206D75737420626520696E207468652066757475726500000000 PUSH1 0x0 DUP3 ADD MSTORE POP JUMP JUMPDEST PUSH1 0x0 PUSH2 0xAC7 PUSH1 0x1C DUP4 PUSH2 0x80C JUMP JUMPDEST SWAP2 POP PUSH2 0xAD2 DUP3 PUSH2 0xA91 JUMP JUMPDEST PUSH1 0x20 DUP3 ADD SWAP1 POP SWAP2 SWAP1 POP JUMP JUMPDEST PUSH1 0x0 PUSH1 0x20 DUP3 ADD SWAP1 POP DUP2 DUP2 SUB PUSH1 0x0 DUP4 ADD MSTORE PUSH2 0xAF6 DUP2 PUSH2 0xABA JUMP JUMPDEST SWAP1 POP SWAP2 SWAP1 POP JUMP JUMPDEST PUSH32 0x4E487B7100000000000000000000000000000000000000000000000000000000 PUSH1 0x0 MSTORE PUSH1 0x11 PUSH1 0x4 MSTORE PUSH1 0x24 PUSH1 0x0 REVERT JUMPDEST PUSH1 0x0 PUSH2 0xB37 DUP3 PUSH2 0x66E JUMP JUMPDEST SWAP2 POP PUSH32 0xFFFFFFFFFFFFFFFFFFFFFFFFFFFFFFFFFFFFFFFFFFFFFFFFFFFFFFFFFFFFFFFF DUP3 SUB PUSH2 0xB69 JUMPI PUSH2 0xB68 PUSH2 0xAFD JUMP JUMPDEST JUMPDEST PUSH1 0x1 DUP3 ADD SWAP1 POP SWAP2 SWAP1 POP JUMP JUMPDEST PUSH32 0x4E487B7100000000000000000000000000000000000000000000000000000000 PUSH1 0x0 MSTORE PUSH1 0x22 PUSH1 0x4 MSTORE PUSH1 0x24 PUSH1 0x0 REVERT JUMPDEST PUSH1 0x0 PUSH1 0x2 DUP3 DIV SWAP1 POP PUSH1 0x1 DUP3 AND DUP1 PUSH2 0xBBB JUMPI PUSH1 0x7F DUP3 AND SWAP2 POP JUMPDEST PUSH1 0x20 DUP3 LT DUP2 SUB PUSH2 0xBCE JUMPI PUSH2 0xBCD PUSH2 0xB74 JUMP JUMPDEST JUMPDEST POP SWAP2 SWAP1 POP JUMP JUMPDEST PUSH1 0x0 DUP2 SWAP1 POP DUP2 PUSH1 0x0 MSTORE PUSH1 0x20 PUSH1 0x0 KECCAK256 SWAP1 POP SWAP2 SWAP1 POP JUMP JUMPDEST PUSH1 0x0 PUSH1 0x20 PUSH1 0x1F DUP4 ADD DIV SWAP1 POP SWAP2 SWAP1 POP JUMP JUMPDEST PUSH1 0x0 DUP3 DUP3 SHL SWAP1 POP SWAP3 SWAP2 POP POP JUMP JUMPDEST PUSH1 0x0 PUSH1 0x8 DUP4 MUL PUSH2 0xC36 PUSH32 0xFFFFFFFFFFFFFFFFFFFFFFFFFFFFFFFFFFFFFFFFFFFFFFFFFFFFFFFFFFFFFFFF DUP3 PUSH2 0xBF9 JUMP JUMPDEST PUSH2 0xC40 DUP7 DUP4 PUSH2 0xBF9 JUMP JUMPDEST SWAP6 POP DUP1 NOT DUP5 AND SWAP4 POP DUP1 DUP7 AND DUP5 OR SWAP3 POP POP POP SWAP4 SWAP3 POP POP POP JUMP JUMPDEST PUSH1 0x0 DUP2 SWAP1 POP SWAP2 SWAP1 POP JUMP JUMPDEST PUSH1 0x0 PUSH2 0xC7D PUSH2 0xC78 PUSH2 0xC73 DUP5 PUSH2 0x66E JUMP JUMPDEST PUSH2 0xC58 JUMP JUMPDEST PUSH2 0x66E JUMP JUMPDEST SWAP1 POP SWAP2 SWAP1 POP JUMP JUMPDEST PUSH1 0x0 DUP2 SWAP1 POP SWAP2 SWAP1 POP JUMP JUMPDEST PUSH2 0xC97 DUP4 PUSH2 0xC62 JUMP JUMPDEST PUSH2 0xCAB PUSH2 0xCA3 DUP3 PUSH2 0xC84 JUMP JUMPDEST DUP5 DUP5 SLOAD PUSH2 0xC06 JUMP JUMPDEST DUP3 SSTORE POP POP POP POP JUMP JUMPDEST PUSH1 0x0 SWAP1 JUMP JUMPDEST PUSH2 0xCC0 PUSH2 0xCB3 JUMP JUMPDEST PUSH2 0xCCB DUP2 DUP5 DUP5 PUSH2 0xC8E JUMP JUMPDEST POP POP POP JUMP JUMPDEST JUMPDEST DUP2 DUP2 LT ISZERO PUSH2 0xCEF JUMPI PUSH2 0xCE4 PUSH1 0x0 DUP3 PUSH2 0xCB8 JUMP JUMPDEST PUSH1 0x1 DUP2 ADD SWAP1 POP PUSH2 0xCD1 JUMP JUMPDEST POP POP JUMP JUMPDEST PUSH1 0x1F DUP3 GT ISZERO PUSH2 0xD34 JUMPI PUSH2 0xD05 DUP2 PUSH2 0xBD4 JUMP JUMPDEST PUSH2 0xD0E DUP5 PUSH2 0xBE9 JUMP JUMPDEST DUP2 ADD PUSH1 0x20 DUP6 LT ISZERO PUSH2 0xD1D JUMPI DUP2 SWAP1 POP JUMPDEST PUSH2 0xD31 PUSH2 0xD29 DUP6 PUSH2 0xBE9 JUMP JUMPDEST DUP4 ADD DUP3 PUSH2 0xCD0 JUMP JUMPDEST POP POP JUMPDEST POP POP POP JUMP JUMPDEST PUSH1 0x0 DUP3 DUP3 SHR SWAP1 POP SWAP3 SWAP2 POP POP JUMP JUMPDEST PUSH1 0x0 PUSH2 0xD57 PUSH1 0x0 NOT DUP5 PUSH1 0x8 MUL PUSH2 0xD39 JUMP JUMPDEST NOT DUP1 DUP4 AND SWAP2 POP POP SWAP3 SWAP2 POP POP JUMP JUMPDEST PUSH1 0x0 PUSH2 0xD70 DUP4 DUP4 PUSH2 0xD46 JUMP JUMPDEST SWAP2 POP DUP3 PUSH1 0x2 MUL DUP3 OR SWAP1 POP SWAP3 SWAP2 POP POP JUMP JUMPDEST PUSH2 0xD89 DUP3 PUSH2 0x801 JUMP JUMPDEST PUSH8 0xFFFFFFFFFFFFFFFF DUP2 GT ISZERO PUSH2 0xDA2 JUMPI PUSH2 0xDA1 PUSH2 0x543 JUMP JUMPDEST JUMPDEST PUSH2 0xDAC DUP3 SLOAD PUSH2 0xBA3 JUMP JUMPDEST PUSH2 0xDB7 DUP3 DUP3 DUP6 PUSH2 0xCF3 JUMP JUMPDEST PUSH1 0x0 PUSH1 0x20 SWAP1 POP PUSH1 0x1F DUP4 GT PUSH1 0x1 DUP2 EQ PUSH2 0xDEA JUMPI PUSH1 0x0 DUP5 ISZERO PUSH2 0xDD8 JUMPI DUP3 DUP8 ADD MLOAD SWAP1 POP JUMPDEST PUSH2 0xDE2 DUP6 DUP3 PUSH2 0xD64 JUMP JUMPDEST DUP7 SSTORE POP PUSH2 0xE4A JUMP JUMPDEST PUSH1 0x1F NOT DUP5 AND PUSH2 0xDF8 DUP7 PUSH2 0xBD4 JUMP JUMPDEST PUSH1 0x0 JUMPDEST DUP3 DUP2 LT ISZERO PUSH2 0xE20 JUMPI DUP5 DUP10 ADD MLOAD DUP3 SSTORE PUSH1 0x1 DUP3 ADD SWAP2 POP PUSH1 0x20 DUP6 ADD SWAP5 POP PUSH1 0x20 DUP2 ADD SWAP1 POP PUSH2 0xDFB JUMP JUMPDEST DUP7 DUP4 LT ISZERO PUSH2 0xE3D JUMPI DUP5 DUP10 ADD MLOAD PUSH2 0xE39 PUSH1 0x1F DUP10 AND DUP3 PUSH2 0xD46 JUMP JUMPDEST DUP4 SSTORE POP JUMPDEST PUSH1 0x1 PUSH1 0x2 DUP9 MUL ADD DUP9 SSTORE POP POP POP JUMPDEST POP POP POP POP POP POP JUMP JUMPDEST PUSH1 0x0 PUSH1 0xC0 DUP3 ADD SWAP1 POP DUP2 DUP2 SUB PUSH1 0x0 DUP4 ADD MSTORE PUSH2 0xE6C DUP2 DUP10 PUSH2 0x847 JUMP JUMPDEST SWAP1 POP DUP2 DUP2 SUB PUSH1 0x20 DUP4 ADD MSTORE PUSH2 0xE80 DUP2 DUP9 PUSH2 0x847 JUMP JUMPDEST SWAP1 POP PUSH2 0xE8F PUSH1 0x40 DUP4 ADD DUP8 PUSH2 0x769 JUMP JUMPDEST PUSH2 0xE9C PUSH1 0x60 DUP4 ADD DUP7 PUSH2 0x769 JUMP JUMPDEST PUSH2 0xEA9 PUSH1 0x80 DUP4 ADD DUP6 PUSH2 0x769 JUMP JUMPDEST PUSH2 0xEB6 PUSH1 0xA0 DUP4 ADD DUP5 PUSH2 0x769 JUMP JUMPDEST SWAP8 SWAP7 POP POP POP POP POP POP POP JUMP INVALID LOG2 PUSH5 0x6970667358 0x22 SLT KECCAK256 0x2D SUB 0xB8 DUP14 GT PUSH12 0x7FEF5FE14DB5F9FE4DA3697 RETURN 0xB5 0xBE 0x4F 0x5F MSIZE COINBASE PUSH26 0xECA4B365708664736F6C63430008130033000000000000000000 "},"methodIdentifiers":{"createOption(string,string,uint256,uint256,uint256,uint256)":"3a755c4e","nextOptionId()":"9215abb0","options(uint256)":"409e2205"}}}}}