{
  "_format": "hh-sol-artifact-1",
  "contractName": "OptionsTrading",
  "sourceName": "contracts/OptionsTrading.sol",
  "abi": [
    {
      "anonymous": false,
      "inputs": [
        {
          "indexed": true,
          "internalType": "uint256",
          "name": "optionId",
          "type": "uint256"
        },
        {
          "indexed": true,
          "internalType": "address",
          "name": "trader",
          "type": "address"
        },
        {
          "indexed": false,
          "internalType": "string",
          "name": "optionType",
          "type": "string"
        },
        {
          "indexed": false,
          "internalType": "string",
          "name": "action",
          "type": "string"
        },
        {
          "indexed": false,
          "internalType": "uint256",
          "name": "lots",
          "type": "uint256"
        },
        {
          "indexed": false,
          "internalType": "uint256",
          "name": "strikePrice",
          "type": "uint256"
        },
        {
          "indexed": false,
          "internalType": "uint256",
          "name": "premium",
          "type": "uint256"
        },
        {
          "indexed": false,
          "internalType": "uint256",
          "name": "expiry",
          "type": "uint256"
        }
      ],
      "name": "OptionCreated",
      "type": "event"
    },
    {
      "inputs": [
        {
          "internalType": "string",
          "name": "_optionType",
          "type": "string"
        },
        {
          "internalType": "string",
          "name": "_action",
          "type": "string"
        },
        {
          "internalType": "uint256",
          "name": "_lots",
          "type": "uint256"
        },
        {
          "internalType": "uint256",
          "name": "_strikePrice",
          "type": "uint256"
        },
        {
          "internalType": "uint256",
          "name": "_premium",
          "type": "uint256"
        },
        {
          "internalType": "uint256",
          "name": "_expiry",
          "type": "uint256"
        }
      ],
      "name": "createOption",
      "outputs": [
        {
          "internalType": "uint256",
          "name": "",
          "type": "uint256"
        }
      ],
      "stateMutability": "payable",
      "type": "function"
    },
    {
      "inputs": [],
      "name": "nextOptionId",
      "outputs": [
        {
          "internalType": "uint256",
          "name": "",
          "type": "uint256"
        }
      ],
      "stateMutability": "view",
      "type": "function"
    },
    {
      "inputs": [
        {
          "internalType": "uint256",
          "name": "",
          "type": "uint256"
        }
      ],
      "name": "options",
      "outputs": [
        {
          "internalType": "address",
          "name": "trader",
          "type": "address"
        },
        {
          "internalType": "string",
          "name": "optionType",
          "type": "string"
        },
        {
          "internalType": "string",
          "name": "action",
          "type": "string"
        },
        {
          "internalType": "uint256",
          "name": "lots",
          "type": "uint256"
        },
        {
          "internalType": "uint256",
          "name": "strikePrice",
          "type": "uint256"
        },
        {
          "internalType": "uint256",
          "name": "premium",
          "type": "uint256"
        },
        {
          "internalType": "uint256",
          "name": "expiry",
          "type": "uint256"
        },
        {
          "internalType": "bool",
          "name": "isActive",
          "type": "bool"
        }
      ],
      "stateMutability": "view",
      "type": "function"
    }
  ],
  "bytecode": "0x608060405234801561001057600080fd5b50610ef7806100206000396000f3fe6080604052600436106100345760003560e01c80633a755c4e14610039578063409e2205146100695780639215abb0146100ad575b600080fd5b610053600480360381019061004e91906106a4565b6100d8565b6040516100609190610778565b60405180910390f35b34801561007557600080fd5b50610090600480360381019061008b9190610793565b610389565b6040516100a498979695949392919061089b565b60405180910390f35b3480156100b957600080fd5b506100c261050e565b6040516100cf9190610778565b60405180910390f35b600080851161011c576040517f08c379a000000000000000000000000000000000000000000000000000000000815260040161011390610973565b60405180910390fd5b6000841161015f576040517f08c379a000000000000000000000000000000000000000000000000000000000815260040161015690610a05565b60405180910390fd5b600083116101a2576040517f08c379a000000000000000000000000000000000000000000000000000000000815260040161019990610a71565b60405180910390fd5b4282116101e4576040517f08c379a00000000000000000000000000000000000000000000000000000000081526004016101db90610add565b60405180910390fd5b6000600160008154809291906101f990610b2c565b9190505590506040518061010001604052803373ffffffffffffffffffffffffffffffffffffffff1681526020018981526020018881526020018781526020018681526020018581526020018481526020016001151581525060008083815260200190815260200160002060008201518160000160006101000a81548173ffffffffffffffffffffffffffffffffffffffff021916908373ffffffffffffffffffffffffffffffffffffffff16021790555060208201518160010190816102c09190610d80565b5060408201518160020190816102d69190610d80565b50606082015181600301556080820151816004015560a0820151816005015560c0820151816006015560e08201518160070160006101000a81548160ff0219169083151502179055509050503373ffffffffffffffffffffffffffffffffffffffff16817fd0815d434d957527dc593641d28c54892edba867f212a6c587c58f47c244a3f38a8a8a8a8a8a60405161037396959493929190610e52565b60405180910390a3809150509695505050505050565b60006020528060005260406000206000915090508060000160009054906101000a900473ffffffffffffffffffffffffffffffffffffffff16908060010180546103d290610ba3565b80601f01602080910402602001604051908101604052809291908181526020018280546103fe90610ba3565b801561044b5780601f106104205761010080835404028352916020019161044b565b820191906000526020600020905b81548152906001019060200180831161042e57829003601f168201915b50505050509080600201805461046090610ba3565b80601f016020809104026020016040519081016040528092919081815260200182805461048c90610ba3565b80156104d95780601f106104ae576101008083540402835291602001916104d9565b820191906000526020600020905b8154815290600101906020018083116104bc57829003601f168201915b5050505050908060030154908060040154908060050154908060060154908060070160009054906101000a900460ff16905088565b60015481565b6000604051905090565b600080fd5b600080fd5b600080fd5b600080fd5b6000601f19601f8301169050919050565b7f4e487b7100000000000000000000000000000000000000000000000000000000600052604160045260246000fd5b61057b82610532565b810181811067ffffffffffffffff8211171561059a57610599610543565b5b80604052505050565b60006105ad610514565b90506105b98282610572565b919050565b600067ffffffffffffffff8211156105d9576105d8610543565b5b6105e282610532565b9050602081019050919050565b82818337600083830152505050565b600061061161060c846105be565b6105a3565b90508281526020810184848401111561062d5761062c61052d565b5b6106388482856105ef565b509392505050565b600082601f83011261065557610654610528565b5b81356106658482602086016105fe565b91505092915050565b6000819050919050565b6106818161066e565b811461068c57600080fd5b50565b60008135905061069e81610678565b92915050565b60008060008060008060c087890312156106c1576106c061051e565b5b600087013567ffffffffffffffff8111156106df576106de610523565b5b6106eb89828a01610640565b965050602087013567ffffffffffffffff81111561070c5761070b610523565b5b61071889828a01610640565b955050604061072989828a0161068f565b945050606061073a89828a0161068f565b935050608061074b89828a0161068f565b92505060a061075c89828a0161068f565b9150509295509295509295565b6107728161066e565b82525050565b600060208201905061078d6000830184610769565b92915050565b6000602082840312156107a9576107a861051e565b5b60006107b78482850161068f565b91505092915050565b600073ffffffffffffffffffffffffffffffffffffffff82169050919050565b60006107eb826107c0565b9050919050565b6107fb816107e0565b82525050565b600081519050919050565b600082825260208201905092915050565b60005b8381101561083b578082015181840152602081019050610820565b60008484015250505050565b600061085282610801565b61085c818561080c565b935061086c81856020860161081d565b61087581610532565b840191505092915050565b60008115159050919050565b61089581610880565b82525050565b6000610100820190506108b1600083018b6107f2565b81810360208301526108c3818a610847565b905081810360408301526108d78189610847565b90506108e66060830188610769565b6108f36080830187610769565b61090060a0830186610769565b61090d60c0830185610769565b61091a60e083018461088c565b9998505050505050505050565b7f4c6f7473206d7573742062652067726561746572207468616e20300000000000600082015250565b600061095d601b8361080c565b915061096882610927565b602082019050919050565b6000602082019050818103600083015261098c81610950565b9050919050565b7f537472696b65207072696365206d75737420626520677265617465722074686160008201527f6e20300000000000000000000000000000000000000000000000000000000000602082015250565b60006109ef60238361080c565b91506109fa82610993565b604082019050919050565b60006020820190508181036000830152610a1e816109e2565b9050919050565b7f5072656d69756d206d7573742062652067726561746572207468616e20300000600082015250565b6000610a5b601e8361080c565b9150610a6682610a25565b602082019050919050565b60006020820190508181036000830152610a8a81610a4e565b9050919050565b7f457870697279206d75737420626520696e207468652066757475726500000000600082015250565b6000610ac7601c8361080c565b9150610ad282610a91565b602082019050919050565b60006020820190508181036000830152610af681610aba565b9050919050565b7f4e487b7100000000000000000000000000000000000000000000000000000000600052601160045260246000fd5b6000610b378261066e565b91507fffffffffffffffffffffffffffffffffffffffffffffffffffffffffffffffff8203610b6957610b68610afd565b5b600182019050919050565b7f4e487b7100000000000000000000000000000000000000000000000000000000600052602260045260246000fd5b60006002820490506001821680610bbb57607f821691505b602082108103610bce57610bcd610b74565b5b50919050565b60008190508160005260206000209050919050565b60006020601f8301049050919050565b600082821b905092915050565b600060088302610c367fffffffffffffffffffffffffffffffffffffffffffffffffffffffffffffffff82610bf9565b610c408683610bf9565b95508019841693508086168417925050509392505050565b6000819050919050565b6000610c7d610c78610c738461066e565b610c58565b61066e565b9050919050565b6000819050919050565b610c9783610c62565b610cab610ca382610c84565b848454610c06565b825550505050565b600090565b610cc0610cb3565b610ccb818484610c8e565b505050565b5b81811015610cef57610ce4600082610cb8565b600181019050610cd1565b5050565b601f821115610d3457610d0581610bd4565b610d0e84610be9565b81016020851015610d1d578190505b610d31610d2985610be9565b830182610cd0565b50505b505050565b600082821c905092915050565b6000610d5760001984600802610d39565b1980831691505092915050565b6000610d708383610d46565b9150826002028217905092915050565b610d8982610801565b67ffffffffffffffff811115610da257610da1610543565b5b610dac8254610ba3565b610db7828285610cf3565b600060209050601f831160018114610dea5760008415610dd8578287015190505b610de28582610d64565b865550610e4a565b601f198416610df886610bd4565b60005b82811015610e2057848901518255600182019150602085019450602081019050610dfb565b86831015610e3d5784890151610e39601f891682610d46565b8355505b6001600288020188555050505b505050505050565b600060c0820190508181036000830152610e6c8189610847565b90508181036020830152610e808188610847565b9050610e8f6040830187610769565b610e9c6060830186610769565b610ea96080830185610769565b610eb660a0830184610769565b97965050505050505056fea26469706673582212202d03b88d116b07fef5fe14db5f9fe4da3697f3b5be4f5f594179eca4b365708664736f6c63430008130033",
  "linkReferences": {},
  "deployedLinkReferences": {}
}