{
  "_format": "hh-sol-artifact-1",
  "contractName": "OptionsTrading",
  "sourceName": "contracts/OptionsTrading.sol",
  "abi": [
    {
      "anonymous": false,
      "inputs": [
        {
          "indexed": true,
          "internalType": "uint256",
          "name": "optionId",
          "type": "uint256"
        },
        {
          "indexed": true,
          "internalType": "address",
          "name": "trader",
          "type": "address"
        },
        {
          "indexed": false,
          "internalType": "string",
          "name": "optionType",
          "type": "string"
        },
        {
          "indexed": false,
          "internalType": "string",
          "name": "action",
          "type": "string"
        },
        {
          "indexed": false,
          "internalType": "uint256",
          "name": "lots",
          "type": "uint256"
        },
        {
          "indexed": false,
          "internalType": "uint256",
          "name": "strikePrice",
          "type": "uint256"
        },
        {
          "indexed": false,
          "internalType": "uint256",
          "name": "premium",
          "type": "uint256"
        },
        {
          "indexed": false,
          "internalType": "uint256",
          "name": "expiry",
          "type": "uint256"
        }
      ],
      "name": "OptionCreated",
      "type": "event"
    },
    {
      "anonymous": false,
      "inputs": [
        {
          "indexed": true,
          "internalType": "uint256",
          "name": "optionId",
          "type": "uint256"
        },
        {
          "indexed": true,
          "internalType": "address",
          "name": "buyer",
          "type": "address"
        },
        {
          "indexed": false,
          "internalType": "uint256",
          "name": "amount",
          "type": "uint256"
        }
      ],
      "name": "PremiumPaid",
      "type": "event"
    },
    {
      "inputs": [
        {
          "internalType": "address",
          "name": "",
          "type": "address"
        }
      ],
      "name": "balances",
      "outputs": [
        {
          "internalType": "uint256",
          "name": "",
          "type": "uint256"
        }
      ],
      "stateMutability": "view",
      "type": "function"
    },
    {
      "inputs": [
        {
          "internalType": "string",
          "name": "_optionType",
          "type": "string"
        },
        {
          "internalType": "string",
          "name": "_action",
          "type": "string"
        },
        {
          "internalType": "uint256",
          "name": "_lots",
          "type": "uint256"
        },
        {
          "internalType": "uint256",
          "name": "_strikePrice",
          "type": "uint256"
        },
        {
          "internalType": "uint256",
          "name": "_premium",
          "type": "uint256"
        },
        {
          "internalType": "uint256",
          "name": "_expiry",
          "type": "uint256"
        }
      ],
      "name": "createOption",
      "outputs": [
        {
          "internalType": "uint256",
          "name": "",
          "type": "uint256"
        }
      ],
      "stateMutability": "payable",
      "type": "function"
    },
    {
      "inputs": [],
      "name": "getContractBalance",
      "outputs": [
        {
          "internalType": "uint256",
          "name": "",
          "type": "uint256"
        }
      ],
      "stateMutability": "view",
      "type": "function"
    },
    {
      "inputs": [
        {
          "internalType": "address",
          "name": "trader",
          "type": "address"
        }
      ],
      "name": "getOrdersByTrader",
      "outputs": [
        {
          "internalType": "uint256[]",
          "name": "",
          "type": "uint256[]"
        }
      ],
      "stateMutability": "view",
      "type": "function"
    },
    {
      "inputs": [
        {
          "internalType": "uint256[]",
          "name": "orderIds",
          "type": "uint256[]"
        }
      ],
      "name": "getOrdersDetails",
      "outputs": [
        {
          "components": [
            {
              "internalType": "address",
              "name": "trader",
              "type": "address"
            },
            {
              "internalType": "string",
              "name": "optionType",
              "type": "string"
            },
            {
              "internalType": "string",
              "name": "action",
              "type": "string"
            },
            {
              "internalType": "uint256",
              "name": "lots",
              "type": "uint256"
            },
            {
              "internalType": "uint256",
              "name": "strikePrice",
              "type": "uint256"
            },
            {
              "internalType": "uint256",
              "name": "premium",
              "type": "uint256"
            },
            {
              "internalType": "uint256",
              "name": "expiry",
              "type": "uint256"
            },
            {
              "internalType": "bool",
              "name": "isActive",
              "type": "bool"
            }
          ],
          "internalType": "struct OptionsTrading.Option[]",
          "name": "",
          "type": "tuple[]"
        }
      ],
      "stateMutability": "view",
      "type": "function"
    },
    {
      "inputs": [],
      "name": "nextOptionId",
      "outputs": [
        {
          "internalType": "uint256",
          "name": "",
          "type": "uint256"
        }
      ],
      "stateMutability": "view",
      "type": "function"
    },
    {
      "inputs": [
        {
          "internalType": "uint256",
          "name": "",
          "type": "uint256"
        }
      ],
      "name": "options",
      "outputs": [
        {
          "internalType": "address",
          "name": "trader",
          "type": "address"
        },
        {
          "internalType": "string",
          "name": "optionType",
          "type": "string"
        },
        {
          "internalType": "string",
          "name": "action",
          "type": "string"
        },
        {
          "internalType": "uint256",
          "name": "lots",
          "type": "uint256"
        },
        {
          "internalType": "uint256",
          "name": "strikePrice",
          "type": "uint256"
        },
        {
          "internalType": "uint256",
          "name": "premium",
          "type": "uint256"
        },
        {
          "internalType": "uint256",
          "name": "expiry",
          "type": "uint256"
        },
        {
          "internalType": "bool",
          "name": "isActive",
          "type": "bool"
        }
      ],
      "stateMutability": "view",
      "type": "function"
    }
  ],
  "bytecode": "0x608060405234801561001057600080fd5b50611b5f806100206000396000f3fe6080604052600436106100705760003560e01c8063409e22051161004e578063409e22051461011f5780636f9fb98a146101635780639215abb01461018e578063b9f746f2146101b957610070565b806327e235e3146100755780633a755c4e146100b25780633f1f6f1e146100e2575b600080fd5b34801561008157600080fd5b5061009c60048036038101906100979190610cf4565b6101f6565b6040516100a99190610d3a565b60405180910390f35b6100cc60048036038101906100c79190610ec7565b61020e565b6040516100d99190610d3a565b60405180910390f35b3480156100ee57600080fd5b5061010960048036038101906101049190610cf4565b61060c565b604051610116919061104a565b60405180910390f35b34801561012b57600080fd5b506101466004803603810190610141919061106c565b6107b8565b60405161015a989796959493929190611142565b60405180910390f35b34801561016f57600080fd5b5061017861093d565b6040516101859190610d3a565b60405180910390f35b34801561019a57600080fd5b506101a3610984565b6040516101b09190610d3a565b60405180910390f35b3480156101c557600080fd5b506101e060048036038101906101db919061122e565b61098a565b6040516101ed919061145c565b60405180910390f35b60026020528060005260406000206000915090505481565b6000808511610252576040517f08c379a0000000000000000000000000000000000000000000000000000000008152600401610249906114ca565b60405180910390fd5b60008411610295576040517f08c379a000000000000000000000000000000000000000000000000000000000815260040161028c9061155c565b60405180910390fd5b600083116102d8576040517f08c379a00000000000000000000000000000000000000000000000000000000081526004016102cf906115c8565b60405180910390fd5b42821161031a576040517f08c379a000000000000000000000000000000000000000000000000000000000815260040161031190611634565b60405180910390fd5b6040518060400160405280600381526020017f62757900000000000000000000000000000000000000000000000000000000008152508051906020012086805190602001200361040e57600085846103729190611683565b90508034146103b6576040517f08c379a00000000000000000000000000000000000000000000000000000000081526004016103ad90611711565b60405180910390fd5b80600260003073ffffffffffffffffffffffffffffffffffffffff1673ffffffffffffffffffffffffffffffffffffffff16815260200190815260200160002060008282546104059190611731565b92505081905550505b60006001600081548092919061042390611765565b9190505590506040518061010001604052803373ffffffffffffffffffffffffffffffffffffffff1681526020018981526020018881526020018781526020018681526020018581526020018481526020016001151581525060008083815260200190815260200160002060008201518160000160006101000a81548173ffffffffffffffffffffffffffffffffffffffff021916908373ffffffffffffffffffffffffffffffffffffffff16021790555060208201518160010190816104ea91906119b9565b50604082015181600201908161050091906119b9565b50606082015181600301556080820151816004015560a0820151816005015560c0820151816006015560e08201518160070160006101000a81548160ff0219169083151502179055509050503373ffffffffffffffffffffffffffffffffffffffff16817fd0815d434d957527dc593641d28c54892edba867f212a6c587c58f47c244a3f38a8a8a8a8a8a60405161059d96959493929190611a8b565b60405180910390a360003411156105fe573373ffffffffffffffffffffffffffffffffffffffff16817ffbf1458fbbddabb878de144276216e8ccda619cbac2d598e6ee37ff72173afb1346040516105f59190610d3a565b60405180910390a35b809150509695505050505050565b60606000805b6001548110156106a6578373ffffffffffffffffffffffffffffffffffffffff1660008083815260200190815260200160002060000160009054906101000a900473ffffffffffffffffffffffffffffffffffffffff1673ffffffffffffffffffffffffffffffffffffffff160361069357818061068f90611765565b9250505b808061069e90611765565b915050610612565b5060008167ffffffffffffffff8111156106c3576106c2610d70565b5b6040519080825280602002602001820160405280156106f15781602001602082028036833780820191505090505b5090506000805b6001548110156107ac578573ffffffffffffffffffffffffffffffffffffffff1660008083815260200190815260200160002060000160009054906101000a900473ffffffffffffffffffffffffffffffffffffffff1673ffffffffffffffffffffffffffffffffffffffff1603610799578083838151811061077e5761077d611afa565b5b602002602001018181525050818061079590611765565b9250505b80806107a490611765565b9150506106f8565b50819350505050919050565b60006020528060005260406000206000915090508060000160009054906101000a900473ffffffffffffffffffffffffffffffffffffffff1690806001018054610801906117dc565b80601f016020809104026020016040519081016040528092919081815260200182805461082d906117dc565b801561087a5780601f1061084f5761010080835404028352916020019161087a565b820191906000526020600020905b81548152906001019060200180831161085d57829003601f168201915b50505050509080600201805461088f906117dc565b80601f01602080910402602001604051908101604052809291908181526020018280546108bb906117dc565b80156109085780601f106108dd57610100808354040283529160200191610908565b820191906000526020600020905b8154815290600101906020018083116108eb57829003601f168201915b5050505050908060030154908060040154908060050154908060060154908060070160009054906101000a900460ff16905088565b6000600260003073ffffffffffffffffffffffffffffffffffffffff1673ffffffffffffffffffffffffffffffffffffffff16815260200190815260200160002054905090565b60015481565b606060008383905067ffffffffffffffff8111156109ab576109aa610d70565b5b6040519080825280602002602001820160405280156109e457816020015b6109d1610c25565b8152602001906001900390816109c95790505b50905060005b84849050811015610c1a57600080868684818110610a0b57610a0a611afa565b5b905060200201358152602001908152602001600020604051806101000160405290816000820160009054906101000a900473ffffffffffffffffffffffffffffffffffffffff1673ffffffffffffffffffffffffffffffffffffffff1673ffffffffffffffffffffffffffffffffffffffff168152602001600182018054610a92906117dc565b80601f0160208091040260200160405190810160405280929190818152602001828054610abe906117dc565b8015610b0b5780601f10610ae057610100808354040283529160200191610b0b565b820191906000526020600020905b815481529060010190602001808311610aee57829003601f168201915b50505050508152602001600282018054610b24906117dc565b80601f0160208091040260200160405190810160405280929190818152602001828054610b50906117dc565b8015610b9d5780601f10610b7257610100808354040283529160200191610b9d565b820191906000526020600020905b815481529060010190602001808311610b8057829003601f168201915b50505050508152602001600382015481526020016004820154815260200160058201548152602001600682015481526020016007820160009054906101000a900460ff161515151581525050828281518110610bfc57610bfb611afa565b5b60200260200101819052508080610c1290611765565b9150506109ea565b508091505092915050565b604051806101000160405280600073ffffffffffffffffffffffffffffffffffffffff1681526020016060815260200160608152602001600081526020016000815260200160008152602001600081526020016000151581525090565b6000604051905090565b600080fd5b600080fd5b600073ffffffffffffffffffffffffffffffffffffffff82169050919050565b6000610cc182610c96565b9050919050565b610cd181610cb6565b8114610cdc57600080fd5b50565b600081359050610cee81610cc8565b92915050565b600060208284031215610d0a57610d09610c8c565b5b6000610d1884828501610cdf565b91505092915050565b6000819050919050565b610d3481610d21565b82525050565b6000602082019050610d4f6000830184610d2b565b92915050565b600080fd5b600080fd5b6000601f19601f8301169050919050565b7f4e487b7100000000000000000000000000000000000000000000000000000000600052604160045260246000fd5b610da882610d5f565b810181811067ffffffffffffffff82111715610dc757610dc6610d70565b5b80604052505050565b6000610dda610c82565b9050610de68282610d9f565b919050565b600067ffffffffffffffff821115610e0657610e05610d70565b5b610e0f82610d5f565b9050602081019050919050565b82818337600083830152505050565b6000610e3e610e3984610deb565b610dd0565b905082815260208101848484011115610e5a57610e59610d5a565b5b610e65848285610e1c565b509392505050565b600082601f830112610e8257610e81610d55565b5b8135610e92848260208601610e2b565b91505092915050565b610ea481610d21565b8114610eaf57600080fd5b50565b600081359050610ec181610e9b565b92915050565b60008060008060008060c08789031215610ee457610ee3610c8c565b5b600087013567ffffffffffffffff811115610f0257610f01610c91565b5b610f0e89828a01610e6d565b965050602087013567ffffffffffffffff811115610f2f57610f2e610c91565b5b610f3b89828a01610e6d565b9550506040610f4c89828a01610eb2565b9450506060610f5d89828a01610eb2565b9350506080610f6e89828a01610eb2565b92505060a0610f7f89828a01610eb2565b9150509295509295509295565b600081519050919050565b600082825260208201905092915050565b6000819050602082019050919050565b610fc181610d21565b82525050565b6000610fd38383610fb8565b60208301905092915050565b6000602082019050919050565b6000610ff782610f8c565b6110018185610f97565b935061100c83610fa8565b8060005b8381101561103d5781516110248882610fc7565b975061102f83610fdf565b925050600181019050611010565b5085935050505092915050565b600060208201905081810360008301526110648184610fec565b905092915050565b60006020828403121561108257611081610c8c565b5b600061109084828501610eb2565b91505092915050565b6110a281610cb6565b82525050565b600081519050919050565b600082825260208201905092915050565b60005b838110156110e25780820151818401526020810190506110c7565b60008484015250505050565b60006110f9826110a8565b61110381856110b3565b93506111138185602086016110c4565b61111c81610d5f565b840191505092915050565b60008115159050919050565b61113c81611127565b82525050565b600061010082019050611158600083018b611099565b818103602083015261116a818a6110ee565b9050818103604083015261117e81896110ee565b905061118d6060830188610d2b565b61119a6080830187610d2b565b6111a760a0830186610d2b565b6111b460c0830185610d2b565b6111c160e0830184611133565b9998505050505050505050565b600080fd5b600080fd5b60008083601f8401126111ee576111ed610d55565b5b8235905067ffffffffffffffff81111561120b5761120a6111ce565b5b602083019150836020820283011115611227576112266111d3565b5b9250929050565b6000806020838503121561124557611244610c8c565b5b600083013567ffffffffffffffff81111561126357611262610c91565b5b61126f858286016111d8565b92509250509250929050565b600081519050919050565b600082825260208201905092915050565b6000819050602082019050919050565b6112b081610cb6565b82525050565b600082825260208201905092915050565b60006112d2826110a8565b6112dc81856112b6565b93506112ec8185602086016110c4565b6112f581610d5f565b840191505092915050565b61130981611127565b82525050565b60006101008301600083015161132860008601826112a7565b506020830151848203602086015261134082826112c7565b9150506040830151848203604086015261135a82826112c7565b915050606083015161136f6060860182610fb8565b5060808301516113826080860182610fb8565b5060a083015161139560a0860182610fb8565b5060c08301516113a860c0860182610fb8565b5060e08301516113bb60e0860182611300565b508091505092915050565b60006113d2838361130f565b905092915050565b6000602082019050919050565b60006113f28261127b565b6113fc8185611286565b93508360208202850161140e85611297565b8060005b8581101561144a578484038952815161142b85826113c6565b9450611436836113da565b925060208a01995050600181019050611412565b50829750879550505050505092915050565b6000602082019050818103600083015261147681846113e7565b905092915050565b7f4c6f7473206d7573742062652067726561746572207468616e20300000000000600082015250565b60006114b4601b836110b3565b91506114bf8261147e565b602082019050919050565b600060208201905081810360008301526114e3816114a7565b9050919050565b7f537472696b65207072696365206d75737420626520677265617465722074686160008201527f6e20300000000000000000000000000000000000000000000000000000000000602082015250565b60006115466023836110b3565b9150611551826114ea565b604082019050919050565b6000602082019050818103600083015261157581611539565b9050919050565b7f5072656d69756d206d7573742062652067726561746572207468616e20300000600082015250565b60006115b2601e836110b3565b91506115bd8261157c565b602082019050919050565b600060208201905081810360008301526115e1816115a5565b9050919050565b7f457870697279206d75737420626520696e207468652066757475726500000000600082015250565b600061161e601c836110b3565b9150611629826115e8565b602082019050919050565b6000602082019050818103600083015261164d81611611565b9050919050565b7f4e487b7100000000000000000000000000000000000000000000000000000000600052601160045260246000fd5b600061168e82610d21565b915061169983610d21565b92508282026116a781610d21565b915082820484148315176116be576116bd611654565b5b5092915050565b7f496e636f7272656374207072656d69756d20616d6f756e740000000000000000600082015250565b60006116fb6018836110b3565b9150611706826116c5565b602082019050919050565b6000602082019050818103600083015261172a816116ee565b9050919050565b600061173c82610d21565b915061174783610d21565b925082820190508082111561175f5761175e611654565b5b92915050565b600061177082610d21565b91507fffffffffffffffffffffffffffffffffffffffffffffffffffffffffffffffff82036117a2576117a1611654565b5b600182019050919050565b7f4e487b7100000000000000000000000000000000000000000000000000000000600052602260045260246000fd5b600060028204905060018216806117f457607f821691505b602082108103611807576118066117ad565b5b50919050565b60008190508160005260206000209050919050565b60006020601f8301049050919050565b600082821b905092915050565b60006008830261186f7fffffffffffffffffffffffffffffffffffffffffffffffffffffffffffffffff82611832565b6118798683611832565b95508019841693508086168417925050509392505050565b6000819050919050565b60006118b66118b16118ac84610d21565b611891565b610d21565b9050919050565b6000819050919050565b6118d08361189b565b6118e46118dc826118bd565b84845461183f565b825550505050565b600090565b6118f96118ec565b6119048184846118c7565b505050565b5b818110156119285761191d6000826118f1565b60018101905061190a565b5050565b601f82111561196d5761193e8161180d565b61194784611822565b81016020851015611956578190505b61196a61196285611822565b830182611909565b50505b505050565b600082821c905092915050565b600061199060001984600802611972565b1980831691505092915050565b60006119a9838361197f565b9150826002028217905092915050565b6119c2826110a8565b67ffffffffffffffff8111156119db576119da610d70565b5b6119e582546117dc565b6119f082828561192c565b600060209050601f831160018114611a235760008415611a11578287015190505b611a1b858261199d565b865550611a83565b601f198416611a318661180d565b60005b82811015611a5957848901518255600182019150602085019450602081019050611a34565b86831015611a765784890151611a72601f89168261197f565b8355505b6001600288020188555050505b505050505050565b600060c0820190508181036000830152611aa581896110ee565b90508181036020830152611ab981886110ee565b9050611ac86040830187610d2b565b611ad56060830186610d2b565b611ae26080830185610d2b565b611aef60a0830184610d2b565b979650505050505050565b7f4e487b7100000000000000000000000000000000000000000000000000000000600052603260045260246000fdfea2646970667358221220d32567bfad26a56048f172b193f3b03af9161b9d779a253102e20e80123aad1064736f6c63430008130033",
  "linkReferences": {},
  "deployedLinkReferences": {}
}